:020000022000DC
:10700000000004200D9403004D9403004F940300EE
:1070100051940300539403005594030000000000B2
:10702000000000000000000000000000FD920300CE
:1070300059940300000000001D9303005D940300B9
:10704000659603005F9403005F9403005F94030060
:107050005F9403005F9403005F9403005F94030058
:107060005F9403005F9403005F9403005F94030048
:107070005F9403005F9403005F9403005F94030038
:107080005F9403004D9003005F9403005F9403003E
:107090005F9403005F94030085A702005F940300E0
:1070A0005F9403005F9403005F9403005F94030008
:1070B0005F9403005F9403000000000000000000E4
:1070C0005F9403005F9403005F940300B99B030087
:1070D0005F9403005F9403005F94030031C20200D9
:1070E0005F940300999B03005F940300000000007D
:1070F000000000005F94030000000000319C0300CA
:10710000000000000000000000000000000000007F
:10711000000000000000000000000000000000006F
:10712000000000000000000000000000000000005F
:10713000000000000000000000000000000000004F
:10714000000000000000000000000000000000003F
:10715000000000000000000000000000000000002F
:10716000000000000000000000000000000000001F
:10717000000000000000000000000000000000000F
:1071800000000000000000000000000000000000FF
:1071900000000000000000000000000000000000EF
:1071A00000000000000000000000000000000000DF
:1071B00000000000000000000000000000000000CF
:1071C00000000000000000000000000000000000BF
:1071D00000000000000000000000000000000000AF
:1071E000000000000000000000000000000000009F
:1071F000000000000000000000000000000000008F
:10720000F1EE103A43F08073E1EE103A704700BFA0
:1072100010B5054C237833B9044B13B10448AFF3D0
:1072200000800123237010BD606300200000000077
:107230004C57040008B5034B1BB103490348AFF397
:10724000008008BD00000000646300204C5704006B
:10725000154B002B08BF134B9D46A3F5803A002128
:107260008B460F461348144A121A18F07FFC0F4B36
:10727000002B00D098470E4B002B00D098470020E1
:10728000002104000D000D48002802D00C48AFF387
:10729000008018F0ABFB2000290012F00FF918F065
:1072A0007FFB00BF00000800000004200000000079
:1072B00000000000606300200C9800200000000027
:1072C0000000000033DF7047704700BF10B5044670
:1072D00012F038F9204610BDF8B5002013F044F93B
:1072E00050B1654C0A200FF0A1FD2368634A0A33B0
:1072F0009342236034DCF8BD014604460C2013F0B1
:1073000091F85F4B1B68132BD4BF0B200D20214637
:1073100013F00CF905200FF089FD002013F024F97B
:1073200070BB584E3478002C41D0534C206008E09C
:107330002368034423600FF079FD2368B3F57A7F57
:107340002CD0002013F010F903460120002BEFD0C1
:107350004D4803F0E5F9002876D10023236010E0C2
:1073600001210B2013F0E2F801210D2013F0DEF8CB
:1073700001210C2013F0DAF8BDE8F840FFF7A2BFB6
:107380003D4C01210C2013F04DF801210D2013F08C
:10739000CDF801210B2013F0C9F8A3E701210D203E
:1073A00013F0C4F801210B2013F0C0F8C9E73648E8
:1073B00003F0B6F990BB304C0023236042F20F7704
:1073C00006E0034423600FF031FD2368BB421DDC5F
:1073D000002013F0C9F8054623680120002DF0D0E5
:1073E000A3F59C53083B41F287329342B5D8012163
:1073F0000B2013F09BF801210D2013F097F80121C9
:107400000C2013F093F8FFF75DFFA6E74FF08042E2
:10741000012325603370C2F81C35D9E71B4D1C4889
:107420002C7201232946EB716C72AC7203F004FBE1
:1074300032200FF0FBFC29461548EC712C726C725F
:10744000AC7203F0F9FAB6E7104D1148002601239B
:107450002946EB712E726E72AE7203F0EDFA322095
:107460000FF0E4FC29460A48EE712E726E72AE727D
:1074700003F0E2FA71E700BF7C630020BF27090038
:107480001865002080630020346500200C65002012
:107490003C640020F8B5164F164C174E174D384671
:1074A00003F016FA22461649384617F033FC3046E8
:1074B00003F0C4F922461349304617F02BFC124E54
:1074C000284603F0ABFA224610492846104D17F023
:1074D00021FC304609F0D8FB31462846012209F04C
:1074E000A9F8224628460B49BDE8F84017F012BC1F
:1074F000F463002000600020846300203C640020CE
:107500008D78020065780200006500203D78020059
:10751000E8640020C9720200F0B595B0022102AF04
:10752000002012F07FFF01210D2012F07BFF0121CE
:107530000B2012F077FF01210C2012F073FF0021C5
:10754000162012F06FFFAC4809F03AFAB921AA48A8
:1075500009F07AFAA94B4FF4A07043F00103984761
:10756000A54809F06FFA032012F0FEFE0A2012F07F
:10757000F5FE01210E2012F055FF00210E2012F021
:10758000D5FF6424232012F01FFF0A200FF04EFCC9
:10759000013CF7D1232012F017FF4FF41663984AED
:1075A000984903FB00F082FB00320244C317C3EB8F
:1075B000622340F2E65202FB03F38B4240F3D18098
:1075C000914C84FB03241C44DB17C3EB242440F6BA
:1075D0008C239C42A8BF1C468C4D95E80F0007F1F8
:1075E000280686E80F00103595E80F003D8D07F15D
:1075F0004806AC4206E90F0040F3B6807B8D9C4202
:107600001D4640F3B980BB8D9C421D4640F3C080AF
:10761000FB8D9C421D4640F3C3803B8E9C421D4621
:1076200040F3D7807B8E9C421D4640F3DA80BB8EB0
:10763000A3421D4603DBF98EA142C0F2DA80744EEC
:10764000744907F11C000FF009FB0A22316807F1A9
:1076500010000FF037FB07F1100107F11C000FF0CD
:107660006DFB6D490FF096FB0146381D0FF010FBC6
:1076700007F110000FF05AFB07F11C000FF056FB4A
:10768000FA6802F1080323F00703ADEB030D02AC27
:10769000013200232146381D0FF0ACFB00210E20E3
:1076A00012F0C0FE4FF0A0410022D1F808375B482D
:1076B00043F44033C1F80837012102F0FFFD0021F7
:1076C000564802F0B9FF5548214602F08DFF4FF0B1
:1076D0008043D3F81C3513F0FF0355D1504A137083
:1076E00050495148102203F0EFF80F224F494E48FD
:1076F00003F0E6F84C4803F021F94D4803F0C2F8D6
:1077000031784B4803F092F84A4803F0A3F9062178
:10771000494800F065F9484800F04AF94FF47171A2
:10772000454800F071F94349434800F0FDF84248EC
:1077300000F010F94048012100F098F9F4223E4889
:10774000202100F08FF93C481E2100F089F900212A
:10775000394800F0EBF9381D0FF0E8FA4C37BD4618
:10776000F0BD4FF4FA6437E7798D8C420B467FF712
:1077700046AF002201231AE0B98D8C420B467FF7F9
:1077800043AF0122022312E0254B01221A70A7E722
:10779000F98D8C420B467FF73CAF0222032306E0B3
:1077A000398E8C420B467FF739AF0322042307F151
:1077B000480000EB420200EB430332F8102C009229
:1077C00033F8103C124E2A4620460FF039FA30604A
:1077D00036E7798E8C420B467FF725AF04220523CE
:1077E000E5E7B98E8C420B467FF722AF05220623D0
:1077F000DDE706220723DAE700650020F029040010
:10780000030820805F900F0081808080D0290400D1
:10781000186500209C290400A82904003465002074
:1078200080630020AC290400F4630020C029040018
:10783000846300203C640020746B002010B5074B6B
:10784000044640F8543B00F0C7FA2046044B40F889
:10785000083B02F05FFA204610BD00BF782B040001
:10786000342A040010B5074B044640F8183B00F0DA
:10787000B3FA2046044B40F8083B02F04BFA20468E
:1078800010BD00BFDC2A0400342A040010B5044BEC
:10789000044640F8083B02F03DFA204610BD00BF08
:1078A000342A040072DF704773DF704777DF704758
:1078B00038B5054608460C4602F04CFA102803D0AD
:1078C00080280ED0012038BDEB7FA2881B2B0EDC58
:1078D000E9180320E85448704A80EB7F0433EB77C3
:1078E000F0E7A368002BEDD0E97F0D2901DD002032
:1078F00038BD6A18112068540721517058681C68F7
:107900009968DB68C2F80E30C2F80600C2F802407F
:10791000C2F80A10EB7F1233EB77012038BD00BFAD
:107920000022C2770270704730B5D1E9042485B0D7
:10793000CD68074B00936946CDE902240195FFF716
:10794000B7FF0446684602F0E5F9204605B030BDB1
:107950004C2A0400F0B589B0064620221348694637
:1079600002F056FEF37FC2181D2A0CDDC3F11D0480
:10797000E4B2E2181D2A4FF00005D8BF082705DD44
:10798000284609B0F0BD044601250927F218601CFD
:10799000F05469465770901C224618F0BFF8F27FE9
:1079A000023214442846F47709B0F0BD3465002053
:1079B00010B50446094802F089FEE37F1C2B01DD67
:1079C000002010BDE2180221E1540A239070537088
:1079D000E37F0333E377012010BD00BF346500204F
:1079E000C27F1C2A01DD0020704710B403469C189A
:1079F000022098540120A1706070DA7F0332DA7798
:107A00005DF8044B704700BFC37F1B2B01DD0020D6
:107A1000704710B4C2180324C45419235180537002
:107A2000C37F0433C3775DF8044B0120704700BF68
:107A300010B4084A084C094902620022C0E90A4110
:107A4000C0E90C225DF8044B0270C2774262826387
:107A5000704700BFFF0101002000F40020001E005D
:107A6000C1857047018581854285704780F8221065
:107A7000704700BFF0B5154605EB8503274A89B06E
:107A8000044603EB830300200E469B00116802901E
:107A9000CDE90460ADF8143094F821308DF8083049
:107AA000CB07CDE90600039009D41D491D4BC87FC3
:107AB000E77F988101201C6099609F8010601949C0
:107AC00002AA04F12000FFF7EDFE10B1002009B07A
:107AD000F0BD94F820101448019102F0F7FD0199CF
:107AE00002460120FFF7E2FE0028EFD194F82000C3
:107AF0000121FFF7D9FE0028E8D10B4802F052FE21
:107B0000628EA68595424FF0010094BF521B921AD7
:107B1000628684F8230009B0F0BD00BF1C65002018
:107B2000B06B00202065002034650020F0B50023F4
:107B300061F30F032D4D044661F31F4389B00363C6
:107B4000FA21284602F0C6FDE68D2949278D0868EE
:107B5000049706EB860303EB830300229B00059248
:107B6000ADF8143094F8213002928DF80830C30734
:107B7000CDE9062203920BD41E4BE27F95F89B06BB
:107B80009A8005F27C6501221C609D6098810A60E4
:107B9000184902AA04F12000FFF784FE10B100206A
:107BA00009B0F0BD94F820101048019102F08EFD4C
:107BB000019902460120FFF779FE0028EFD194F8E1
:107BC00020000121FFF770FE0028E8D1074802F0ED
:107BD000E9FD638EA7859E424FF0010094BF9B1B79
:107BE000DB1A638684F8230009B0F0BD34650020F9
:107BF0001C6500202065002030B50B888D88112B76
:107C000085B0044605D0262B33D0102B25D005B0E7
:107C100030BD436AEB40DB07F9D52E4801F03CF953
:107C20000028F4D1636A94F82310012202FA05F5C2
:107C300023EA050363620029E9D194F82230002B7E
:107C4000E5D0238E23486386FA2102F043FDE28DBE
:107C5000218D2046FFF70EFFD9E7CB7B012BD6D134
:107C6000426A03FA05F515430023456280F8233084
:107C7000CDE70B7A012BCAD1002380F823304FF4D3
:107C8000FA71144802F026FD238E5BB1658E95B122
:107C9000A36B0BB19847658E618D2A462046FFF78E
:107CA000E9FEB4E7A36B03B19847618D002220463B
:107CB000FFF7E0FEABE7074802F088FD626B002AA1
:107CC000A5D0009503AB29462846039512F088F904
:107CD0009DE700BF3465002075DF704710B44FF09A
:107CE00010144FF448010022C0E90041C0E902220B
:107CF0005DF8044B704700BF014800F0D3BE00BFE1
:107D0000246C0020F8B500250D4F2E4601E0142DFF
:107D100014D0A9B2384602F02DFD013504460028E2
:107D2000F5D000F06DFD0028F1D0204600F072FD86
:107D3000022804BF0136F6B2142DEAD13046F8BD50
:107D40003465002070B58E881B480C4694B03146CF
:107D500002F010FD23881A2B05D01F2B1CD0102BEE
:107D60000FD014B070BD054600F04CFD0028F8D0CF
:107D7000284600F049FD0028F3D1284600F0AAFD6E
:107D8000EFE7694600F08EFD0028EAD06A463146EA
:107D90000A4801F01FFCE4E754F8080F61686B46DD
:107DA00003C33046BDF80030ADF802306946FFF736
:107DB00093FF14B070BD00BF3465002054650020EF
:107DC000AADF7047ABDF7047ACDF7047ADDF7047AD
:107DD000AEDF7047B0DF704710B5044B044640F883
:107DE000043B01F097FF204610BD00BF042A0400A9
:107DF00010B5054B044640F8043B01F08BFF2046CC
:107E000011F0A0FB204610BD042A040070B57B4B86
:107E100004461B68836196B0043001F0ABFF94F810
:107E20002E30A06913F0320208BF84F82F2013F01F
:107E30000C0308BF84F830300DF10102694601F0EF
:107E40005FFF94F82F209DF8010015070DD09DF8D5
:107E5000001002F00F0301F00F059D424FEA1212CD
:107E60006DD243EA021284F82F2094F830301907BB
:107E70000BD003F00F0100F00F058D424FEA1313F2
:107E800069D241EA031384F8303094F82E1011F0CF
:107E9000300340F096800FAD0F93C5E90133C5E97B
:107EA00003338DF83C10AB610021ADF809109DF84B
:107EB0000A10206A1493012363F342018DF808200D
:107EC0008DF80A1008B1037873BB94F8263013B10B
:107ED00004F12603129394F831200023D20708936B
:107EE000079358BFE38AADF81C3004F1080004F191
:107EF0002F01CDE9050154BF1846E08AADF82000F6
:107F0000294604F13203E569099505AA0020FFF727
:107F100057FF054628B994F8253043BB237D002B35
:107F200064D0284616B070BD109018F002FD02AB68
:107F300080B2ADF84400ADF846001393C5E74FEAB0
:107F4000111101D191428CD30A462B4643EA021209
:107F500084F82F2089E74FEA101001D1984290D37E
:107F60000346294641EA031384F830308DE7ADF823
:107F70000D009DF80E2094F82F600C90012363F300
:107F8000420242F608118DF80E208DF8123004AA34
:107F90000223ADF8101003A90D90ADF83030ADF804
:107FA00034300A9204F124030B910DF102020AA964
:107FB0008DF80C600E93FFF705FF0028AED0054644
:107FC000AFE70F4B8DF805200FAD1B788DF804300F
:107FD000022000230F938DF80600C5E90133C5E99F
:107FE0000333AB618DF83C1001AB5DE721460548DA
:107FF00000F014FF284616B070BD00BF30650020A9
:10800000F8290400746900202DE9F0410B888E885E
:10801000502B8AB00C46054609D0512B04D18B79E0
:10802000012B19D0022B26D00AB0BDE8F081CB88F5
:10803000428E9A4235D0EA8E9A42F5D16B6D002B72
:10804000F2D095F84420648A920700F18A80224693
:10805000294630469847E7E7836C002BE4D090F838
:108060004420520701F108076CD43A4629463046AD
:108070009847A379D6E7A27B042A46D0062A20D0C7
:10808000012AD1D1EB6C002BCED095F844201707F4
:1080900004F1080400F1A58022462946304698479D
:1080A000C2E7076D002FC6D090F84430D90768D4D6
:1080B00004F11208238A424629463046B847E3882D
:1080C000B9E7EA6B002AAFD0002202A93046CDE919
:1080D0000222CDE90422ADF80C208DF80830FFF71C
:1080E00079FE2C6D54B195F84430D80700F1928098
:1080F000B5F84230EA6B30462946A047E86B0EF0EF
:10810000CBFE0023C5E90F338EE7E86B002878D05B
:10811000B5F84010278A628A07EB020C00234FF063
:10812000020E8C45CDE90633CDE908338DF818E011
:1081300039DD40F20913ADF81C3006A93046FFF7CF
:1081400049FE71E703211A46009106AB0821384623
:10815000CDE90665089711F043FF002889D1AB6C83
:1081600083E7032000211A46009006AB0846CDE9BC
:108170000665089411F034FF00287FF455AF6B6D4D
:1081800065E7218A069604F11208042300933A4613
:10819000404606ABCDE90881079511F021FF002884
:1081A0008DD12F6D86E79DF81EC0ADF81C3004F10F
:1081B00014014CF001033844ADF822208DF81E3034
:1081C0000991ADF8207017F0A9FC238A618AB5F8EF
:1081D00042200B449BB2934238BF1346A5F842306D
:1081E000ABE703211A46009106AB0E212046CDE9EC
:1081F0000665089411F0F4FE00287FF415AFEB6CCF
:108200004AE74FF480600EF02DFE4FF48061C5E91F
:108210000F017FE7E86BB5F8421006960423009340
:10822000224606ABCDE90750099111F0D9FE00288E
:108230007FF464AF2C6D5BE72DE9F04F0F464FF6EE
:10824000FF718F4289B0064615461C4626D0F18A3A
:1082500096F82E308C4228BF0C46DB0615D40DF163
:10826000100B8C4228BF0C464FF00008718EADF801
:1082700010405A464FF6FF700595ADF81280FFF793
:10828000A3FD404609B0BDE8F08F3948394602F0F9
:1082900059FA08B1F18E31B9F18AE0E7344802F0B9
:1082A0005DFA0746D3E7002002230DF1100BADF86D
:1082B0001200ADF810305A460DF10E033846059302
:1082C000FFF784FD43F2014398424FD000284AD182
:1082D0009DF80E8008F00108B8F1000F46D0244840
:1082E000394602F047FA8246A0B300F095FA033807
:1082F00083B2002CC5D0CDF804804FF00009984619
:1083000005E0BDF80E30E41AA4B21D4444B3504653
:1083100000F096FAA04503464246594628BF224639
:108320003846BBB1ADF80E204FF00102738E8DF8C8
:1083300012200DF10E02CDE90625CDF813908DF82F
:108340001790ADF81030FFF743FD0028D9D0504604
:1083500000F080FA4FF00008404609B0BDE8F08F09
:10836000DDF804808DE700F00108B5E7F18A78E7D1
:108370003465002010B5154B044640F8043B01F06D
:10838000D1FC134A0023127884F8443014200321CE
:10839000A384C4F82630C4F82A3084F82E30E08252
:1083A000C4E90F33C4E91233C4E9143384F831103B
:1083B0002375A3612362E36163866363238784F883
:1083C0002F2084F83020204610BD00BF042A04006E
:1083D000F829040070B44E68164A86600260D1E93C
:1083E0000262154B154D1C78456002611425002270
:1083F0000321C0E90F22C0E91222C0E91422C6609D
:10840000C58280F8311080F84420027582610262D2
:108410008284C0F82620C0F82A2080F82E20C2616D
:1084200042864263028780F82F4080F8304070BC5B
:10843000704700BF042A0400F82904004C2A0400F5
:1084400010B4D1E90142CB680361C0E902425DF892
:10845000044B70478069704701230375704700BF64
:1084600080F82E10704700BF41B190F83130C182C2
:10847000002262F3000380F83130704790F8313009
:10848000012262F3000380F83130704780F82F102A
:1084900080F83020704700BF90F84430016562F3E7
:1084A000000380F84430704780F8241080F82520BD
:1084B000704700BF51F8322F026049684160704731
:1084C00030B5C48A83B0944223460D4628BF134674
:1084D000418E019500246A464FF6FF70ADF80030DA
:1084E000ADF80240FFF770FC18B9BDF8000003B00A
:1084F00030BD204603B030BD30B5C38A85B00A46D2
:10850000012B28BF0123418E8DF8072000240DF197
:10851000070502AA4FF6FF70ADF80830ADF80A4023
:108520000395FFF751FC18B9BDF8080005B030BD40
:10853000204605B030BD00BF10B490F82E4014F0B6
:10854000100403D05DF8044BFFF776BE20465DF8BB
:10855000044B7047A1DF7047A3DF7047A4DF70476B
:1085600000238383704700BF006A00F0E3B800BFB8
:10857000808B70472DE9F0410B88CE88382B86B070
:108580000C46054606D0392B66D0362B43D006B0B4
:10859000BDE8F08100F12407002E36D10A8A384662
:1085A000314602F065FD94F80C80B8F1010F2CD033
:1085B000B8F1040FEBD1286A00F0BCF801465C4822
:1085C00002F0D8F800F028F92A8E053883B29342D9
:1085D00028BF1346002B00F09A80218AE289286A7E
:1085E000AC8B8DF80D600A44E96A05918DF80C801A
:1085F000ADF81230ADF81020ADF80E4000F09AF84A
:1086000003A9FFF7A9FF0028C1D0384602F048FDB2
:1086100006B0BDE8F081006A00F08CF801464448DD
:1086200002F0A8F800F0F8F807466EBB05F1240642
:10863000E289304604F1100102F01AFD2B8E2BB1B5
:10864000F81EE38980B20138834255DA304602F0E1
:1086500027FD06B0BDE8F0810B7B012B1AD0022B61
:1086600095D1836B002B92D090F83C208F88920795
:108670001FD401F11006E2893146284698476189E6
:108680003846FFF76BFF82E705F12407384602F012
:1086900007FDBDE7436B002B3FF479AF90F83C201A
:1086A000D10717D404F11006E289314628469847CD
:1086B0006DE7C989039004F1100603201A46009063
:1086C00003AB3046CDE9046111F08AFC0028D6D115
:1086D000AB6BD0E7E189039004F1100603201A4642
:1086E000009003AB3046CDE9046111F079FC00281D
:1086F0007FF44DAF6B6BD7E7286A00F01BF86A8EEA
:10870000A98B92B2FFF726FF00289FD13FE7AA8BE3
:10871000286AADF80E2040F20511ADF80C10CDE935
:10872000043300F007F803A9FFF716FF6DE700BF59
:1087300034650020808870478FDF704790DF704776
:10874000B1DF7047B5DF704710B5074B03600446D3
:10875000806A0FF0E9F9E06A0FF0E6F9206B08B1E2
:108760000FF0E2F9204610BD1C2A040010B5094B99
:1087700003600446806A0FF0D7F9E06A0FF0D4F97D
:10878000206B08B10FF0D0F9204610F0DBFE204638
:1087900010BD00BF1C2A040070B504460D4692E8C7
:1087A0000300A5800E0CA061A183144DA6771720AD
:1087B0001B2156892560E0809589D089E181D17996
:1087C0006581012222752274A081617418461946C0
:1087D00026819DF810500EF009FC2946A06228461B
:1087E0000EF004FC4FF4885100234FF6FF72E18233
:1087F000E062628223636375204670BD1C2A040018
:10880000007D7047407D7047C07D113818BF012042
:10881000704700BF407C7047C08870470089704730
:108820004B7D10B44BB11F310C688A888B79046082
:1088300082805DF8044B837170471831F4E700BF04
:1088400008B56621806A0EF0F3FF003818BF0120DA
:1088500008BD00BF08B500231A461946806A0EF00D
:10886000F7FB003818BF012008BD00BF818800F168
:108870001F02407C02F05ABC38B50A4605460C4639
:108880008188407C02F03EFC2146012051F8483F9F
:10889000C5F81F308B888A7985F82520A5F8233004
:1088A000687538BD38B50A4604460D4600F1180112
:1088B000407C02F071FC607550B1294651F8483F88
:1088C000C4F81F308B888A7984F82520A4F82330D7
:1088D00038BD00BF10B5447D24B100F11F01407CBC
:1088E00002F038FC204610BD70B50B88113B82B0F9
:1088F0000C460546462B2BD8DFE803F0383B2A2AE6
:108900002A2A2A2A2A422A2A2A2A2A2A50585E64ED
:108910002A2A2A2A2A2A2A2A2A2A2A2A2A2A2A2AB7
:108920002A2A2A2A2A672A942A2A2A2A2A2A2A2A00
:108930002A2A2A2A2A2A2A2A2A2A2A2A2A246A2A5D
:10894000752C84000023A8881A461946FFF7F8FE04
:1089500002B070BD8B79002BFAD1006BAB7500288B
:10896000F6D01A4619460EF073FBF1E700230375A3
:10897000EEE74B8903818B894381CB898381E7E7CC
:108980000B7AC375112BE3D0818800F11F02407C64
:1089900002F0BAFC03460028DAD1D4E7002301A98B
:1089A0008088ADF80430FFF7C7FED1E70B7A002BC3
:1089B000CED14B7A0374CBE7002211468088FFF7B3
:1089C000BDFEC5E70B89C381C2E74B89C380BFE702
:1089D000006B0123AB750028BAD000231A46194654
:1089E0000EF036FBB4E7417C164801F0BBFEE3888D
:1089F0000146994228BF194689B2A888E980FFF745
:108A0000A1FEA5E78B79002BA2D0002600231A46F1
:108A10001946A86A0EF01CFB0136A279F3B29A42FD
:108A2000F4D895E78B7A002B92D0002600231A46C3
:108A30001946E86A0EF00CFB0136A27AF3B29A42AC
:108A4000F4D885E73465002070B58AB086880B4677
:108A500006A84FF42851144605934FF6FF7501F010
:108A60006BF90120CDE90105059B0094314606AA6A
:108A7000044800F06FF8044606A801F04BF92046C0
:108A80000AB070BD7469002010B50446043002F0CD
:108A90008BFA034B236000232375204610BD00BFD3
:108AA0000100FFFF017D01B1704710B5044604309D
:108AB00002F084FA0123237510BD00BF007D7047CA
:108AC0000B88322B10B504D0332B17D0302B08D0A5
:108AD00010BDCB88DBB1041D2046BDE8104002F07C
:108AE000DFBACB88041D002BF6D14B89002BF3D0C5
:108AF0000A3120460A2202F0BBFAEDE7CB88002BB0
:108B0000E9D14A89002AE6D002EB420204E04A8910
:108B1000002AE0D002EB82025200041D023292B21F
:108B20000A31204602F0A4FAD6E700BFA0DF704762
:108B300010B5044600F5F87002F036FA2046F82227
:108B4000002117F013F8F822A018002117F00EF8F2
:108B5000204610BD2DE9F04782B00546BDF82C60D7
:108B6000BDF830402048ADF80460BDF828A0ADF84D
:108B70000640904699460F4601F0FCFD05F5F87554
:108B8000064603E0FFF74AFE0EF050F9284602F0D1
:108B90006DFA04463046002CF4D10121284602F03B
:108BA0000DFA52464946284602F024FA08F104011B
:108BB000384601AAFFF7BAFF30B1284602F008FA9A
:108BC000204602B0BDE8F0874FF4FA71284602F063
:108BD00017FA20EAE074284602F0FAF9A4B2204617
:108BE00002B0BDE8F08700BF346500202DE9F04FEA
:108BF0008F880D8885B0884604463946864801F03E
:108C0000B9FDA5F11003012B814640F2908094F844
:108C100054203AB3002633461633502D54F823A07F
:108C200069D0512D1AD198F80630B8F808B0022B47
:108C300053D0BBF1000F11D051466846FFF73AFC04
:108C4000BDF800305B4559D0514602A8FFF732FC11
:108C5000BDF80C305B4551D094F854200136F3B286
:108C60009342D9D394F84C31002B00F0D18004F515
:108C7000A679002604E094F84C310136B34220DD99
:108C800059F8040FFFF770FCB842F4D1382D03D027
:108C9000392D01D0362DEED1B8F80AA0BAF1000F67
:108CA000E9D0D9F800B05846FFF762FC5045E2D150
:108CB00058464146FFF75EFC94F84C310136B3420A
:108CC000DEDC112D55D0352D04D1B8F80A30002B3B
:108CD00040F08F8005B0BDE8F08F98F80E30062B7D
:108CE000A7D1DAF800305046DB684146984748463D
:108CF000FFF78AFDB0E7B8F806B09AE7DAF8003077
:108D00005046DB68414698474846FFF77DFD0028FE
:108D1000A2D0502DA0D1514602A8FFF7CBFBBDF841
:108D20000C305B4598D14846FFF7A0FD94E72378C7
:108D3000002B3FF46CAF0026112D33460CD004EB12
:108D400083033946586803685B6898470136227880
:108D5000F3B29A42F3D85AE704EB830339465868D2
:108D600003681B68984701362278F3B29A42F3D819
:108D70004DE7D3B10026334605E094F84C21013687
:108D8000F3B29A4211D904EB8305D5F85001FFF7ED
:108D9000EBFBB842F1D1D5F85001FFF7E1FB01360A
:108DA00094F84C21F3B29A42EDD894F8F820002AB6
:108DB00090D000252B4604EB8303D3F8FC00838876
:108DC000BB420AD00135EBB2934283D204EB83035A
:108DD000D3F8FC008388BB42F4D103681B68984732
:108DE000013594F8F820EBB29342E4D305B0BDE826
:108DF000F08F04F5F874B8F80C20204608F1100143
:108E000002F036F9204605B0BDE8F04F02F048B94F
:108E1000112D7FF458AFC8E73465002090F8542036
:108E2000272A0CD810B4034602F11604013280F848
:108E3000542043F8241001205DF8044B70470020B3
:108E4000704700BF0378132B06D800EB8302013371
:108E500003700120516070470020704778DF704731
:108E60007ADF7047054A034692E80300002283E850
:108E70000300C3E902221846704700BF242A0400F9
:108E800008B5FFF7EDFF08B1002008BDFFF7E6FFCA
:108E9000B0FA80F0400908BDF8B500250D4F2E4608
:108EA00001E0142D14D0A9B2384601F063FC01355D
:108EB00004460028F5D0FFF7A3FC0028F1D0204697
:108EC000FFF7A8FC012804BF0136F6B2142DEAD141
:108ED0003046F8BD3465002008B501804280FFF7B8
:108EE000BFFFB0FA80F0400908BD00BF704700BF67
:108EF0008ADF704730B40D4CC4621F250022502415
:108F00008584A025C0E91122C0E90F22A0F84650AF
:108F1000A0F84840006230BC8262028680F83820A7
:108F20004263C264A0F85020704700BF0001800077
:108F30002DE9F04F10468DB016460C4600F00AFFA2
:108F4000C5B2102D4FD0B66807220623A16994F848
:108F50001C9001918DF80D208DF80C30ED080DF16D
:108F60000C080DF10E0A0027B9F1010F0A97CDE99F
:108F70000477CDE90677CDE90877CDF82B700ED9C7
:108F800098F8000001994B464A7882420FD00A783F
:108F9000D4432344013213F0FF031144F4D108F108
:108FA0000108C245E0D100200DB0BDE8F08F11F8F6
:108FB000024B013CE4B2224604A816F0AFFD0DF1CD
:108FC000100B1CB9EBE714F0FF04E8D058462A4612
:108FD000314616F095FD641BAB440028F3D1012007
:108FE0000DB0BDE8F08F043603220223AEE700BFC8
:108FF0002DE9F0430B888E88103B87B00D46044660
:109000000D2B2CD8DFE803F077072B2B2B2B2B2BEA
:109010002B2B2B842B2E836AF340DB071FD556485E
:10902000FEF770FED8B9A36A94F82C20012505FA42
:1090300006F623EA0606A6628AB994F82D3073B1C3
:109040001F232462A38404F1200104F14400FFF7EC
:109050004FFF20B9494801F0A5FB84F82C5007B018
:10906000BDE8F08390F92E2091F91B309A423ADC4A
:1090700090F8383001F108080BB3DFF804910026AE
:1090800002E0D6B2B34218D9636BCDF8089003EB77
:10909000061302AA59680391D3E902734146204698
:1090A00005930497FFF744FF074602A800F032FE3D
:1090B00094F83830721C002FE3D09E4213D094F8FD
:1090C0002F30002B49D095F82430012B0BD9296A79
:1090D0004A78FF2A30D00A78D0430344013213F093
:1090E000FF031144F4D104F120010020FFF700FF39
:1090F00007B0BDE8F083CB7B022BB0D1836A01229D
:1091000002FA06F633430022836280F82C20A6E799
:109110000B7A012BA3D1002580F82C50174801F0C1
:1091200055FB226C002A9AD0009502AB29462846AE
:10913000029510F055FF92E711F8025B6A1ED2B259
:10914000022A28BF022202A816F0E8FC012DCAD08C
:10915000228EBDF808309A42C5D1E26B002A3FF456
:109160007EAF01230093404602AB2421CDF8088056
:1091700010F036FF73E700BF44650020346500201F
:109180004C2A040046DF70477FDF704780DF70475E
:1091900081DF704785DF704786DF704738B51C4632
:1091A0000D460346114628462246984734B10146EB
:1091B00000222846BDE83840FFF7E8BF38BD00BFB1
:1091C00010B50C4682B003466946204698476A4669
:1091D00020460121FFF7DAFF02B010BD10B50446AA
:1091E000083002F0BBFA074B2360032200232271F0
:1091F000C4F81034C4F81434C4F81834C4F81C3457
:10920000204610BD3507100330B50446ADF55F7D2F
:1092100000F108058F4802F035FA0821284602F0CF
:10922000A1FA684602F0A8FA6846082102F0A8FAF6
:109230006946284602F046FA04F54F714122684615
:1092400002F0ACFA684602F0A5FA94F85C0394F8D0
:109250005B2394F83D1394F83E3384F83D0384F87F
:109260003E2394F85A0394F8592394F83F5384F812
:109270005C1384F85B3394F8401394F8413384F81A
:109280003F0384F8402394F8580394F8572384F854
:109290005A5384F8591394F8425394F8431384F8BA
:1092A000410384F8583394F8560394F8443384F80F
:1092B000422394F8552384F8575384F8430384F8E1
:1092C000442384F8553384F8561394F8451394F8DE
:1092D000540394F8532394F8463384F8450384F8F0
:1092E000462394F8520394F8512394F8475384F892
:1092F000541384F8533394F8481394F8493384F89A
:10930000470384F8482394F8500394F84F2384F8D3
:10931000525384F8511394F84A5394F84B1384F839
:10932000490384F8503394F84E0394F84C3384F88E
:109330004A2394F84D2384F84F5384F84B0384F860
:109340004C2384F84D3384F84E1394F85D1394F84D
:109350007C0394F87B2394F85E3384F85D0384F8EF
:109360005E2394F87A0394F8792394F85F5384F891
:109370007C1384F87B3394F8601394F8613384F899
:109380005F0384F8602394F8780394F8772384F8D3
:109390007A5384F8791394F8625394F8631384F839
:1093A000610384F8783394F8760394F8643384F88E
:1093B000622394F8752384F8775384F8630384F860
:1093C000642384F8753384F8761394F8651394F85D
:1093D000740394F8732394F8663384F8650384F86F
:1093E000662394F8720394F8712394F8675384F811
:1093F000741384F8733394F8681394F8693384F819
:10940000670384F8682394F8700394F86F2384F852
:10941000725384F8711394F86A5394F86B1384F8B8
:10942000690384F8703394F86E0394F86C3384F80D
:109430006A2394F86D2384F86B03012084F86F533A
:1094400084F86E1384F86C2384F86D330DF55F7D1A
:1094500030BD00BFC06C00200B7803F0FE03042B6E
:1094600001D00020704770B515468CB00C46202204
:10947000002104A816F07AFB28686968AA68EB68DE
:109480006D460FC59DF800109DF80F209DF80160F6
:109490009DF80E509DF802008DF80F1023469DF8A0
:1094A0000D108DF800209DF803208DF80E608DF8CA
:1094B00001509DF80C609DF804508DF80D008DF85A
:1094C00002109DF80B009DF805108DF80C209DF8FA
:1094D0000A208DF803608DF80B508DF804008DF88C
:1094E00005208DF80A109DF8061033F8042FADF80A
:1094F00010209B789DF809209DF81D009DF81060B4
:109500009DF81F508DF809108DF806209DF8111058
:109510009DF81E208DF81D309DF807308DF8120043
:109520008DF81F609DF808009DF813608DF81050AD
:109530008DF81E109DF81C509DF814108DF8112008
:109540008DF808309DF81B209DF81A308DF8070023
:109550008DF81C608DF813509DF815608DF81B1068
:109560008DF8142068468DF815309DF819109DF877
:1095700017209DF818309DF816508DF818208DF89A
:1095800016108DF817308DF81A608DF81950FFF706
:10959000F9FD62789DF82F309DF82E009DF82D1072
:1095A0008DF821009A428DF8221004F1010404D0B4
:1095B000012080F001000CB070BD6278C3B29A4205
:1095C00004F10104F4D16278CBB29A42F0D10020C8
:1095D000EFE700BF08B5137CDB0758BF1C32084615
:1095E00002F11201FFF7D6FDB0FA80F0400908BD84
:1095F000F0B58F880E46ADF56B7D0446394646487A
:1096000001F0B8F83388133B0546072B2FD8DFE865
:1096100013F03E005F006D002E0028038700080055
:109620003100337AB3B9737B9B070ED4294602A865
:10963000FFF7F6F80299BDF80C209DF80E3084F87B
:109640000C34C4F80614A4F80A24284604F2BE31E7
:10965000FFF712F9D4F818244AB1307A0D9002239A
:109660000021009308460CAB0C9710F0B9FC0DF5E7
:109670006B7DF0BDD4F81C24002AF8D00123002112
:10968000009308460CAB0C9710F0AAFCEFE704F22D
:10969000BE3304F2DA320C9304F2F6330025109252
:1096A000119304F23D3204F27E330F921393CDE90D
:1096B0000D551295FFF7AEF801280CBF22462A4639
:1096C0000CAB29463846FFF75FFD0DF56B7DF0BD0D
:1096D0000CA9FFF7E7F80346002800F0D2820CA996
:1096E000384600231AAAFFF757FDC0E7D4F8101434
:1096F0000029BCD0B37B094A03F001030F93042374
:10970000CDE90C1706F10800009306210CAB0E9072
:1097100010F066FCABE700BF346500209D910200AD
:1097200094F87E3394F89D2394F87FC394F89C6357
:1097300094F8805394F89B0384F89D33042194F8A3
:109740009A3384F87D1384F87E2394F8811394F877
:10975000822384F89CC384F87F6394F899C394F8B7
:10976000836384F89B5384F8800394F8985394F8A7
:10977000840384F89A1384F8813394F8971394F847
:10978000853384F8992394F8962384F882C384F867
:10979000986384F8835384F8970384F8841384F8D7
:1097A000852384F8963394F8862394F8953394F8B7
:1097B00087C394F8946394F8885394F8930394F8C7
:1097C000891384F8952384F8863394F8922394F8C7
:1097D0008A3384F894C384F8876394F891C394F827
:1097E0008B6384F8935384F8880394F8905394F827
:1097F0008C0384F8921384F8892394F88F1394F8D7
:109800008D2384F8913394F88E3384F88AC384F8D6
:10981000906384F88B5384F88F0384F88C1384F856
:109820008D3384F88E2394F89E2394F8BD3394F8F6
:109830009FC394F8BC6394F8A05394F8BB0394F8C6
:10984000A11384F8BD2384F89E3394F8BA2394F8C6
:10985000A23384F8BCC384F89F6394F8B9C394F826
:10986000A36384F8BB5384F8A00394F8B85394F826
:10987000A40384F8BA1384F8A12394F8B71394F8D6
:10988000A52384F8B93394F8B63384F8A2C384F8D6
:10989000B86384F8A35384F8A41384F8B62384F837
:1098A000A53384F8B70394F8A60394F8B51394F895
:1098B000A72394F8B43394F8A86394F8B35384F8C6
:1098C000B50384F8A61394F8A90394F8B21384F8A6
:1098D000B42384F8A73394F8AA2394F8B13384F816
:1098E000B36384F8A85394F8AB6394F8B05384F846
:1098F000B20384F8A91394F8AC0394F8AF1384F876
:10990000B12384F8AA3394F8AD2394F8AE3384F8E5
:10991000AD3384F8AE2384F8B06384F8AB5384F895
:10992000AF0384F8AC130CA801F026FF0CA80821A3
:1099300001F026FF04F27D310CA8412201F040FF26
:109940000CA904AA202304F1080001F0E9FE0CA8E8
:1099500001F020FF9DF810109DF82F009DF81130A8
:109960009DF82E209DF812609DF82D508DF8100066
:109970008DF82F109DF813009DF82C108DF81120F4
:109980008DF82E309DF814209DF82B308DF8125054
:109990008DF82D609DF815509DF82A608DF81310F4
:1099A0008DF82C009DF816109DF829008DF81430C4
:1099B0008DF82B209DF817309DF828208DF8156024
:1099C0008DF82A508DF816008DF817208DF8283064
:1099D0008DF829109DF818109DF827009DF8193072
:1099E0009DF826209DF81A609DF825508DF81800E6
:1099F0008DF827109DF81B009DF824108DF8192074
:109A00008DF826309DF81C209DF823308DF81A50D3
:109A10008DF825609DF81D509DF822608DF81B1073
:109A20008DF824009DF81E109DF821008DF81C3043
:109A30008DF823209DF81F309DF820208DF81D60A3
:109A40008DF822508DF821108DF81F208DF82030D0
:109A50008DF81E0094F87E0394F89D1394F87F23EC
:109A600094F89C3394F8806394F89B5384F89D0396
:109A700084F87E1394F8810394F89A1384F89C2355
:109A800084F87F3394F8822394F8993384F89B63A5
:109A900084F8805394F8836394F8985384F89A0375
:109AA00084F8811394F8840394F8971384F8992325
:109AB00084F8823394F8852394F8963384F8986375
:109AC00084F8835384F8841384F8962384F88533C8
:109AD00084F8970394F8860394F8951394F88723F1
:109AE00094F8943394F8886394F8935384F8950326
:109AF00084F8861394F8890394F8921384F89423D5
:109B000084F8873394F88A2394F8913384F8936324
:109B100084F8885394F88B6394F8905384F89203F4
:109B200084F8891394F88C0394F88F1384F89123A4
:109B300084F88A3394F88D2394F88E3384F89063F4
:109B400084F88B5384F88C1384F88E2384F88D3337
:109B500084F88F0394F89E0394F8BD1394F89F2320
:109B600094F8BC3394F8A06394F8BB5384F8BD0315
:109B700084F89E1394F8A10394F8BA1384F8BC23D4
:109B800084F89F3394F8A22394F8B93384F8BB6324
:109B900084F8A05394F8A36394F8B85384F8BA03F4
:109BA00084F8A11394F8A40394F8B71384F8B923A4
:109BB00084F8A23394F8A52394F8B63384F8B863F4
:109BC00084F8B70384F8A41384F8B62384F8A53383
:109BD00084F8A35394F8A65394F8A72394F8B433C5
:109BE00094F8B50394F8A81394F8B36384F8B553C4
:109BF00084F8B42394F8A95394F8AA2384F8A733DB
:109C000094F8B13394F8B0C384F8A60384F8B3137E
:109C100094F8B20394F8AB1384F8A86384F8B253B1
:109C200094F8AC6394F8AF5384F8B12384F8AA3362
:109C300094F8AD2394F8AE3384F8A90384F8B013F4
:109C4000384604A984F8ABC384F8AF6384F8AC53F6
:109C500084F8AE2384F8AD33FFF79AFA0DF56B7DE7
:109C6000F0BDD4F81424002A3FF401AD02230021F2
:109C700000930C920CAB064A0D97084610F0B0F911
:109C8000F5E438461A461946FFF786FAEFE400BFB6
:109C9000C1910200A8DF7047704700BF30B504468D
:109CA00083B0083000F066F804F10C010DF10602F3
:109CB0000120FFF7EFFF054628B9044B04481C605C
:109CC0002146FFF7BFF8284603B030BD30650020BD
:109CD0007469002030B44C68C460D1E90241054A7F
:109CE000054D0260054A8560C0E90441426030BC10
:109CF000704700BF342A04004C2A040000001111F0
:109D000083790B70C3791370704700BF62DF7047AF
:109D100063DF7047704700BF10B504460FF012FCB8
:109D2000204610BD034A02600022C0E9022282716F
:109D3000828070474C2A040010B4054C81800022B8
:109D400001210460C0E902225DF8044B8171704773
:109D50004C2A04008379012B0AD0826832B9C26888
:109D600022B9012B8CBF80200020704780207047D3
:109D7000102070472DE9F047857982B0002D47D13A
:109D8000C7680646002F47D010200DF06BF88246BA
:109D9000384616F0CEFD441E30B3DFF88490A84656
:109DA00004E00134023C1FD4102D1DD017F804C06C
:109DB000BCF12D0F07EB0402F3D099F80030ADF899
:109DC00005808DF8043012F8013C8DF80430102223
:109DD000002101A88DF805C016F066FE6B1C023C40
:109DE0000AF80500DDB2DFD5C6F808A0BAF1000F09
:109DF0000ED0B11D5046FFF789FFB168321D10200B
:109E0000FFF786FFB0FA80F0400902B0BDE8F087A6
:109E1000012002B0BDE8F087D0F808A0E6E700BF57
:109E2000402A04004DDF70474EDF70474FDF704718
:109E300050DF70474BDF704710DF70477CDF7047A3
:109E40007DDF704760DF704769DF704761DF704713
:109E500066DF704767DF7047704700BF0C2010F067
:109E6000A5BB00BF30B5224C224D83B0D4F82807E3
:109E70004FF0FF310DF0DCFC0028F7D0C5B101A890
:109E8000FFF7D8FF0528F1D00028F8D1019B032B5C
:109E90001BD8012BF3D918460CF038FEEFE70A2B3C
:109EA00004D0092B21D00B2B02D1012005F00CFF8F
:109EB00001A8FFF7BFFF0528D8D00028F8D1019BE3
:109EC000A3F10902022AF3D8E9E7A3F10902022A61
:109ED000D5D80A2B04D0092B05D00B2BCFD10120CC
:109EE00005F0F2FECBE70220FAE70220DEE700BF32
:109EF000346500200D6B03002DE9F04F2DED028B32
:109F00004FF4FA7089B00CF0ADFFB24E00F10803C7
:109F100008EE103A054606F5F06706F5C86AD6F869
:109F200024074FF0FF310DF083FC0028F7D04FF4E9
:109F3000FA730DF116012846ADF81630FFF786FFCB
:109F400010B10528F3D1EAE7B5F80490B9F1130F81
:109F500000F2398106EB8903D3F834473CB1294636
:109F60002046FEF7C1FC9C482946FFF741FB2B88A1
:109F7000013B1B2B5AD8DFE813F01601590059009A
:109F80005900590059005900590059005900590009
:109F90005900590059005900B4001C0059005900DB
:109FA00059005900590059005900590059005900E9
:109FB000A200DFF838824FF0000B58F8040F30B1E0
:109FC000FEF71EFC18B10BF1010B5FFA8BFBB845D5
:109FD000F3D1BBF1000F06D196F830371BB15946CB
:109FE0000C2010F0A3FA2046FEF714FC012800F024
:109FF000EC80F26962B10223002195F808C0009359
:10A00000084606ABCDF81890CDF81CC00FF0E8FF5D
:10A0100009F5E67806EB8803586810B103685B68B9
:10A02000984706EB88080023C8F8043029465046B4
:10A03000FDF7E2FD69482946FEF7DAFFB6F8323748
:10A040004B452B8800F0B480102B1ED02CB320463B
:10A05000FEF7E0FB012803D15E482946FEF746FFE4
:10A060002046FEF7D7FB02281BD05D48FEF726FDF1
:10A0700000BB5C482946FEF7B9FDD6F88837002BAF
:10A080003FF455AF2846984751E7EB7B012BDDD1D4
:10A09000AB88A6F83237002CD9D14E482946FEF7B6
:10A0A00025FF51482946FDF74DFE4D48FEF706FDB8
:10A0B0000028DED04A482946FEF702FDD9E7D6F847
:10A0C0008427002AB2D00223002195F908C000930A
:10A0D000084606ABCDF81890CDF81CC00FF080FFF5
:10A0E000A4E74FF00008D6F82C07CDF800804346CF
:10A0F000424603213D4C0EF015FF54F8040F30B1D9
:10A10000FEF77EFB18B108F101085FFA88F8BC423F
:10A11000F3D196F830376BB1B8F1000118BF0121C7
:10A120000C2010F003FA96F830371BB101210C20F7
:10A1300010F0FCF909F5E67806EB8804606820B1B8
:10A1400003685B68984700236360EB7B012B0BBFC0
:10A1500096F8123796F8183796F8134796F8194775
:10A16000039334200FF0EAF906EB8808039B009470
:10A1700018EE102A04464946FEF70EFB2046C8F8A2
:10A180000440FEF747FB012832D0B269002A3FF4B1
:10A190004DAF012300210093084606ABCDF818907F
:10A1A0000FF01EFF42E700214846FFF751FE3DE752
:10A1B000102B3FF46AAF112B7FF448AF4FF6FF73BB
:10A1C000A6F8323742E70446D1E6F268002A7FF467
:10A1D00012AF1DE73465002054650020D06B0020CD
:10A1E000246C00207469002044650020646C002009
:10A1F000B268002A3FF41AAF0021009006AB08466F
:10A20000CDF818900FF0ECFE10E700BF38B504460B
:10A21000FEF728FE04F11000FDF760FD04F12000B8
:10A22000FEF7DCFF04F58860FEF782FC04F5C860E9
:10A23000FDF7FEFB04F27C60FDF772FB04F29C600C
:10A24000FEF758FE04F5DE60FEF71EFC4FF4805367
:10A250000025C4F8083716481649174AC4F80C07F1
:10A2600040F20113C4F81017C4F81427A4F81837E3
:10A27000A4F81A5704F234702946502215F076FCDF
:10A2800001224FF6FF73A4F81C5784F81E57C4F838
:10A290002457C4F82857C4F82C57C4F88857C4F872
:10A2A000845784F83027A4F83237204638BD00BFE1
:10A2B000010A17000300010117000300F0B5BF4EAB
:10A2C00080F81C178DB080F81D2704460FF0B6F9F2
:10A2D0000FF0BCF90FF07AF93369B949039303A879
:10A2E000FFF7AAFD18B1002528460DB0F0BD0120EA
:10A2F000FFF79AFD0120FFF795FD0120FFF796FD7E
:10A3000009A8FFF795FD099B9B0705D5AD4BD3F831
:10A310000435002B00F0FE800023AB4A94F80D5763
:10A32000049209A90120CDE909330B938DF824503B
:10A33000FFF78AFD0028D6D194F81D370B90CDE9A0
:10A340000900181E18BF012094F81C578DF827002B
:10A35000049A8DF8263009A940208DF82550FFF782
:10A3600073FD0028BFD194F80C170990034661F3E0
:10A370000003CDE90A00049A8DF8243009A9A02031
:10A38000FFF762FD0028AED1D4F808370A900B9091
:10A39000049A099309A9A120FFF756FD0028A2D12C
:10A3A00094F81C37002B40F0B98094F81D37002B2F
:10A3B00048D00023B4F81477049A0993022509A918
:10A3C0002320CDE90A338DF82450ADF82670FFF72D
:10A3D0003BFD002887D1CDE9090094F81D77B4F83A
:10A3E00016370B90049A8DF8245009A920208DF877
:10A3F0002670ADF82830FFF727FD00287FF473AFF3
:10A400000990CDE90A0094F81837049A8DF8245081
:10A4100009A922208DF82630FFF716FD00287FF4C9
:10A4200062AFCDE9090094F819370B90049A8DF8C2
:10A43000245009A921208DF82630FFF705FD0028BA
:10A440007FF451AF04A8FFF7FDFC00287FF44BAF69
:10A45000CDE9070040F0010307A902208DF81C3068
:10A46000FFF7F8FC00287FF43EAF2046FEF708FD1A
:10A47000054600283FF437AF04F12000FEF7C4FE84
:10A48000337D52498DF80830122202A8FFF7D6FC1E
:10A4900000287FF428AF94F81D37002B40F0888007
:10A4A0000322002101200CF05FFDC4F824070028DE
:10A4B0003FF419AF05AB0326CDE900634449454895
:10A4C00000234FF4A0620DF0CDFC324600210120A4
:10A4D0000CF04AFDC4F8280700283FF404AF06AB8F
:10A4E000CDE900633C493D480023C8220DF0BAFC89
:10A4F0003B4B4FF480021A603A4B009300231846FE
:10A5000001224FF480710EF0B7FCC4F82C0700F064
:10A51000D3FDE9E6022005F0D7FBFDE60990CDE981
:10A520000A00B4F80E37049AADF82630012509A9BF
:10A5300023208DF82450FFF787FC00287FF4D3AE4A
:10A54000CDE9090094F81C77B4F810370B90049A01
:10A550008DF8245009A920208DF82670ADF82830F8
:10A56000FFF772FC00287FF4BEAE0990CDE90A0027
:10A5700094F81237049A8DF8245009A922208DF8F6
:10A580002630FFF761FC00287FF4ADAECDE909006D
:10A5900094F813370B90049A8DF8245009A92120C0
:10A5A0008DF82630FFF750FC00283FF4FEAE9AE607
:10A5B00004F11000FDF7A0FB72E700BFAC2A040015
:10A5C000599E02000070024000600020902A0400A2
:10A5D000A42A0400F99E0200A82A0400659E020035
:10A5E00000E100E05D9E020000B5084B85B01B7DD8
:10A5F000019108468DF80C3016F09BF9019982B252
:10A6000003A8FFF71BFC05B05DF804FBAC2A0400AF
:10A6100000B583B008460DF10601ADF80620FFF73E
:10A620000FFC20B99DF8060003B05DF804FB002084
:10A6300003B05DF804FB00BF70B4234B0E46054623
:10A640000FCB85B06C4607C49DF900202380B24231
:10A6500034D09DF90130B34230D09DF90230B3427D
:10A660002CD09DF90330B34228D09DF90430B34279
:10A6700024D09DF90530B34220D0FEB19DF90730BA
:10A68000B3421BD09DF90830B34217D09DF9093071
:10A69000B34213D09DF90A30B3420FD09DF90B306D
:10A6A000B3420BD09DF90C30B34207D09DF90D3069
:10A6B000B34203D0002005B070BC7047012085F87C
:10A6C0001E6705B070BC7047C42A040090F91E07CD
:10A6D000704700BF70B5044682B0D0F82C070D4615
:10A6E0000EF04CFC4FF47A7206460023A90DA80226
:10A6F00014F094FF002302460421D4F82C070093A1
:10A700000EF010FC0EB102B070BD0096D4F82C070C
:10A710003346324603210EF005FC02B070BD00BF87
:10A7200070B500F5E66400F5F065002654F8040FF6
:10A7300020B1FEF765F808B10136F6B2AC42F5D1AA
:10A74000304670BD132906D800EB8101D1F83407DB
:10A7500008B1FEF755B80020704700BFB0F83207C7
:10A76000704700BF01290CBFB0F80E07B0F81407FE
:10A77000704700BF13299ABF00EB8101D1F834075D
:10A780000020704710B5064C0021D4F828070CF0C3
:10A79000C3FED4F824070021BDE810400CF0BCBE75
:10A7A0003465002090F8303703B9704710B582B097
:10A7B000D0F82C470DF046FD0023024600932046BA
:10A7C00001210EF0AFFB02B010BD00BFF0B583B0A9
:10A7D000002405462346D0F82C0700942246032186
:10A7E0000EF0A0FB05F5E66605F5F06756F8040FD8
:10A7F00020B1FEF705F808B10134E4B2BE42F5D14C
:10A8000095F8303743B1211E18BF01210C2003B049
:10A81000BDE8F0400FF08ABE03B0F0BD0148FFF77D
:10A82000F5BC00BF346500200020704708B5183023
:10A83000FDF762FE003818BF012008BD30B585B0B5
:10A84000044641F60F016846FFF776FA694620464E
:10A85000FFF740FA25466846FFF75CFA084B45F8D3
:10A86000183B684642F61921FFF766FA6946284602
:10A87000FDF7B0FD6846FFF74DFA204605B030BD44
:10A88000DC2A040030B583B00446FFF707FA08B1AC
:10A8900003B030BD0546122104F118000190FDF708
:10A8A000DFFD01982A461121FDF7F0FD01980121F5
:10A8B000FDF7DAFD019803B0BDE83040FDF7A6BA18
:10A8C000C16180F83D207047016380F842207047E5
:10A8D00070B584B0044641F60A016846FFF72CFAC9
:10A8E00069462046FFF7F6F96846FFF713FA204657
:10A8F0000E4B40F8183B2422002115F037F90C4E7E
:10A900000C480D4AE06200232364E36384F844307A
:10A910001225062113232046E66184F83D5084F871
:10A920004110226384F8423004B070BD0C2B040047
:10A93000902A0400E82A0400F02A04002DE9F047D8
:10A940009AB00646FFF7AAF98046002846D1336A36
:10A95000002B4ED0736A002B56D0C6F5275909F14B
:10A96000270906F1140406F1380706F13C0554F8EE
:10A97000043F04A873B3FDF7FDFC2268B36B09EB39
:10A9800005019A4289B2684608BF42F65021FFF796
:10A99000D3F9694604A8FDF753FD6846FFF7BAF9F5
:10A9A00004A8FDF759FD022104A8FDF759FD2978F7
:10A9B00004A8FDF759FD04A8FDF728FA824604A86B
:10A9C000BAF1000F0ED12A782168FDF779FD04A8AD
:10A9D000FDF702FABC4205F10105C8D140461AB0A4
:10A9E000BDE8F087FDF7F8F9D04640461AB0BDE85B
:10A9F000F0870FF09FFB044615F09BFF736A3462EB
:10AA000086F83E00002BA8D10FF054FB044615F049
:10AA100090FF746286F83F009FE700BF10B50023E7
:10AA200004461A46012100F069F8024B23602046D3
:10AA300010BD00BF642B040000B583B00B220B4691
:10AA400000924FF6FF71012200F046F803B05DF866
:10AA500004FB00BF30B5002383B004461A4601A9A9
:10AA60000B25ADF8045000F033F82046002100F02B
:10AA700027F82046002100F025F820460849442206
:10AA800000F022F8204600F07DFA044620B905487F
:10AA90000C220921FEF720FA204603B030BD00BF8A
:10AAA000182B04003465002010B514460846FDF745
:10AAB000D1FC2378003B18BF0123437710BD00BFB2
:10AAC000C176704701777047C0E90912704700BF2F
:10AAD000C0E90B124363704730B414461A46029B18
:10AAE00034B1013CE4B204EB840504EB4504E4001A
:10AAF000C06B9BB2204430BCFDF71EBD2DE9F04178
:10AB000084B004460E46684641F6120115461F46BB
:10AB1000FFF712F969462046FFF7DCF8A0466846C1
:10AB2000FFF7F8F83A4B48F8543B42F64C21684698
:10AB3000FFF702F969464046FDF74CFC6846FFF70F
:10AB4000E9F80020334A26764FF40073C4E909007F
:10AB5000C4E90C00C4E91000C4E913006576A776C7
:10AB6000E2612384E062E076A063E063A06436B92A
:10AB7000EDB9A57E9DBB204604B0BDE8F0814FF045
:10AB80005808082518FB065528460EF0D9FC00F198
:10AB90000807C0E9008646193D4628465835FDF7A6
:10ABA000E9FBB542F9D1657EE763002DE1D04FF0B6
:10ABB0005808082618FB056630460EF0C1FC00F167
:10ABC0000807C0E9008506443D4628465835FDF78C
:10ABD000D1FBB542F9D1A57E2764002DCBD04FF033
:10ABE0005808082618FB056630460EF0A9FC00F14F
:10ABF0000807C0E9008506443D4628465835FDF75C
:10AC0000B9FBAE42F9D12046676404B0BDE8F081DB
:10AC1000782B0400000101012DE9F043C37EB1B09F
:10AC200004460DF16808002B40F09180037F002B53
:10AC300040F08D80002533E0E36B03EBC609FFF79E
:10AC40007BF841464846FDF7FBFB4046FFF762F8BC
:10AC5000E06B12213844FDF703FCE06B002238441E
:10AC60002121FDF713FC05F10109E06B5FFA89F979
:10AC7000384449460122FDF717FCE36AE06B2DB228
:10AC80002BB1384433F81510FDF7EEFBE06B50F8AC
:10AC9000363038449B6898470546002853D14D46C6
:10ACA000237E05EB850605EB4606AB42404642F6A1
:10ACB0004D214FEAC607BFD8637E002B73D0002614
:10ACC00006E0206C4844FDF717FC637EB3426AD966
:10ACD000206C06EB860706EB470700EBC70542F63C
:10ACE0004D214046FFF728F841462846FDF7A8FBCE
:10ACF0004046FFF70FF8206C4FEAC70948440E2181
:10AD0000FDF7AEFB206C212211464844FDF7BEFB47
:10AD1000731C206C3546DEB2484431460222FDF7F2
:10AD2000C3FB236B2BB1206C33F815104844FDF79F
:10AD30009BFB206C50F8373048449B689847054689
:10AD400001460028BDD0284631B0BDE8F08342F668
:10AD50004E214046FEF7F0FF58200EF0EFFB414633
:10AD60000546FDF737FBA5634046FEF7D3FFA06B12
:10AD7000002800F08D800621FDF772FBA06B0121F9
:10AD8000FDF772FB7E49A06B0122FDF785FBA06BEE
:10AD900003689B68984705460028D4D1617FA06B63
:10ADA000FDF7AAFB46E742F64B214046FEF7C4FFFB
:10ADB000414604A8FDF70EFB4046FEF7ABFF04A892
:10ADC000FDF74AFB04A80221FDF74AFB002204A874
:10ADD0002121FDF75BFB218D04A8FDF745FB04A8AD
:10ADE000FDF714F8054600284BD1228D616A04A8AE
:10ADF000FDF766FBE37E002B74D1237F002B4CD143
:10AE000042F64A216846FEF797FF69464046FDF73D
:10AE1000E1FA6846FEF77EFF4046FDF71DFB022182
:10AE20004046FDF71DFB002221214046FDF72EFB89
:10AE300004214046FDF718FB4046FCF7E7FF0546B6
:10AE4000E0B9042204F11E0140465434FDF738FBFA
:10AE500020460421FDF704FB294621222046FDF768
:10AE600015FB20460121FDF7FFFA2046FCF7CEFF37
:10AE7000054618B920462946FDF73EFB4046FCF73B
:10AE8000ABFF04A8FCF7A8FF284631B0BDE8F0836B
:10AE90000425284631B0BDE8F08342F63321404610
:10AEA000FEF74AFF58200EF049FB41460546FDF7E4
:10AEB00091FA25654046FEF72DFF206D1221FDF722
:10AEC000CFFA206D0521FDF7CFFA206D0022212158
:10AED000FDF7DCFA206D03689B689847054600285B
:10AEE0008ED0CEE742F622214046FEF725FF5820BD
:10AEF0000EF024FB41460646FDF76CFAA664404678
:10AF0000FEF708FFA06C1221FDF7AAFAA06C082139
:10AF1000FDF7AAFA2A46A06C2121FDF7B7FAA06C2A
:10AF200003689B68984705460028AAD142F632215B
:10AF30004046FEF701FF58200EF000FB4146054653
:10AF4000FDF748FAE5644046FEF7E4FEE06C0E21AA
:10AF5000FDF786FAE06C0121FDF786FA2122E06C0C
:10AF60001146FDF793FAE06C03689B689847054625
:10AF7000002886D10146E06CFDF7BEFA3DE700BF30
:10AF8000A9AA0200436A6BB1836A10B504463BB1BB
:10AF9000FEF784FE28B92046BDE81040FFF73CBE0E
:10AFA000072010BD07207047002201214270C0E930
:10AFB00001220170C2818281704700BF10B5044632
:10AFC000017001B110BD0A200CF010F8606010BDD6
:10AFD000037810B5044643B1002301226370C4E92D
:10AFE0000133E381A381227010BD40680CF09CFD09
:10AFF000F2E700BF002381608281C381704700BFF8
:10B00000037870B504460D46B3B9466801236370F2
:10B010004FF47A720023A802A90D14F0FFFA01463A
:10B0200030460CF005FC98B9237800264FF0FF3528
:10B030006670A3B9284670BD0322002101200BF0E1
:10B0400093FF064660600028E0D14FF0FF35F1E73E
:10B05000E58923780026ADB26670002BEAD06068DF
:10B060000CF062FD6660284670BD00BF40787047F6
:10B0700038B504468089824228BF0246154619B178
:10B08000A06814F04BFDA089E389A26815FA83F348
:10B09000401B9BB22A44A081E381A260284638BDB0
:10B0A000406820B100231A4619460BF0D1BF704703
:10B0B000B1DF7047B2DF704708B50F480BF0B4FB43
:10B0C0000E490D4805F094FE28B10D490A4805F0D7
:10B0D0008FFE50B108BD0949074805F0A5FE084993
:10B0E000054805F085FE0028F4D1BDE80840044974
:10B0F000014805F099BE00BF1C7A0020842B040093
:10B10000982B040070B586B00E4603230021054637
:10B1100014460093044A0496084603AB039505942D
:10B120000EF05EFF06B070BDF1B3020070B586B0E0
:10B130000323144606460D460093104603AB044A0B
:10B1400005940721CDE903650EF04AFF06B070BDF6
:10B1500021B5020030B50A4691B08979537903913F
:10B1600011790293D378094D094C0191009393789A
:10B17000527801280CBF2946214604A815F084FB0B
:10B1800004A9044805F0A8FE11B030BDAC2B0400A2
:10B19000DC2B04001C7A00202DE9F043D1B00B78A1
:10B1A000032B04AF0D460446904668D95A08022A7C
:10B1B0005ED14F4A4F49504BDFF84891012818BFE4
:10B1C00011460022381D06F05FF84B4907F1680070
:10B1D00005F090FF07F1CC0611E00246414607F169
:10B1E000680006F079F808F1380229464846FEF76B
:10B1F00033F9044678BB07F1680006F0E3F8002253
:10B20000391D304606F010F907F1D0000DC8D7F807
:10B21000DC10D7F8E4407B67D7F8E83097F8E0C057
:10B22000F8663A67B967412207F1EC0107F1880037
:10B23000C7E9204387F87CC014F070FC07F1680070
:10B2400006F0ECF8044607F1680044B105F0F2FEA0
:10B250005028D0D1C1E707F1680006F0B3F8381DD7
:10B2600006F0B0F8204607F59A77BD46BDE8F083B2
:10B270000024204607F59A77BD46BDE8F083E946ED
:10B280008CB08979AB786A780391697902912979D0
:10B2900001911A4E1A49E878009004AD012C08BFBC
:10B2A0003146284607F1CC0615F0EEFA1249304631
:10B2B00005F020FF29463046002205F0C9FF04466C
:10B2C00050B90024304606F07DF82046CD4607F5FB
:10B2D0009A77BD46BDE8F083304605F0ABFE021E0E
:10B2E000EFDD92B24146304605F0F6FFEAE700BFD7
:10B2F000982B0400842B04001C7A0020AC2B040043
:10B30000DC2B040054650020F0B5ADB0957993783E
:10B31000344E1446527803956579029594F804C02A
:10B32000CDF804C0304DE478009404AF0C460128F9
:10B330000CBF3146294607F10C0015F0A5FA2B4B3E
:10B3400007F10C0107F13C00002205F09DFF07F119
:10B350003C0006F063F840B9002407F13C0006F019
:10B3600031F82046A437BD46F0BD07F13C0005F09A
:10B3700061FE051E08DD07F13C0005F0EBFF291812
:10B3800007F13C0005F0C8FF07F13C0005F052FE54
:10B39000051E08DD07F13C0005F0DCFF291807F168
:10B3A0003C0005F0B9FF07F13C0005F043FE002822
:10B3B000D2DDC31D23F007036D46ADEB030D82B252
:10B3C00004A907F13C00C7E9001205F085FF2046FB
:10B3D000D7E900120323FFF76BFEB0FA80F464098B
:10B3E000AD46BAE7AC2B0400DC2B04001C7A00202D
:10B3F000F0B5B5B092F84E5092F84A30434E14462C
:10B4000092F84920039594F84D50029594F84C50C9
:10B41000019594F84B5000950D463D4904AF012825
:10B4200018BF314607F12C0015F02EFA394807F104
:10B430002C0105F0DDFC6E4600284AD1354B07F1A2
:10B440002C0107F15C00012205F01EFF07F15C00F2
:10B4500005F0E4FF18B9C437B546BD46F0BD50212C
:10B4600007F15C0005F014FE5022214607F15C0054
:10B4700005F04CFD0023294627487B61C7E90333CB
:10B48000C7E90633C7E90833BB62FFF773F907F171
:10B490000C012022FDF7D8FA3B7B03B307F10C0027
:10B4A00015F047FA013082B2C1B207F15C007A6050
:10B4B00005F0EEFD7A6807F10C0107F15C0005F07C
:10B4C00025FD07F15C0005F07DFFC437B546BD469C
:10B4D000F0BD07F12C010F4805F0FEFCAEE794F833
:10B4E000491094F84D3094F84E20039194F84A1086
:10B4F000029194F84B10019194F84C10009107F1CF
:10B500000C00064915F0C0F9C8E700BFDC2B0400A9
:10B51000AC2B04001C7A0020346500200C2C0400A5
:10B520002DE9F043ADB00C4604AF002103230646DD
:10B530001546204607F10A027981FFF7BBFD7B899A
:10B54000E84623B9A437C546BD46BDE8F0830733B6
:10B55000DB08A8EBC3039D460DF11009204607F157
:10B560000A0249460323FFF7A5FD04460028E9D156
:10B57000A979AB786A780391697902912979019167
:10B580003D483E49ED780095012E08BF014607F180
:10B590000C0015F079F93A4B07F10C0107F13C006A
:10B5A000012205F071FE07F13C0005F037FF00288D
:10B5B000C8D0214607F13C0005F0AEFE07F13C0083
:10B5C00005F038FD041E08DD07F13C0005F0C2FE61
:10B5D000211807F13C0005F09FFE07F13C0005F043
:10B5E00029FD041E08DD07F13C0005F0B3FE21181B
:10B5F00007F13C0005F090FE07F13C0005F01AFD54
:10B600007C8980B2A04213D0E1B207F13C0005F082
:10B610003FFD2246494607F13C0005F077FC07F163
:10B620003C0005F0CFFEA437C546BD46BDE8F0831B
:10B63000E31D6D46DB08A5EBC3039D4604A9224626
:10B6400007F13C00796005F047FE79687A89484641
:10B6500014F056FA08B9AD46E1E707F13C0005F0F1
:10B6600095FE7B89DB43191807F13C0005F054FE79
:10B67000AD467C89C8E700BFAC2B0400DC2B04007E
:10B680001C7A002038B590F8E8500DB1284638BD36
:10B69000012380F8E830044610F044FD0028F5D17D
:10B6A0002046BDE8384000F0ADB800BF10B5044CEE
:10B6B000204600F0A3F8002384F8E83010BD00BF56
:10B6C000C06C002003680A689A4201D000207047CD
:10B6D00070B5044684B04FF453700D460BF0C2FBB6
:10B6E0000646B0B10C4800F0ABF823460435002103
:10B6F00053F8042B0095CDE90161084910F0ACFB2B
:10B70000044630460BF0C8FBB4FA84F0400904B09C
:10B7100070BD002004B070BDC06C002035AC0300CB
:10B72000F0B585B006464FF453700D4617460393A7
:10B730000BF098FB78B1044600903A46281D311D65
:10B7400003AB10F007FC054620460BF0A5FB15B92E
:10B75000039805B0F0BD002005B0F0BD00220260E6
:10B76000704700BF10B50446084610F065FC206025
:10B77000003818BF012010BD00220260704700BFD2
:10B7800010B50446084610F057FC2060003818BF7A
:10B79000012010BD00230360704700BF00B583B0D7
:10B7A0000430019201AB0A46042110F0CFFA18B917
:10B7B000019803B05DF804FB002003B05DF804FBC2
:10B7C000F0B5044683B04FF463700E4617460BF095
:10B7D00049FB054678B1019054F8040B00943A46B1
:10B7E0003146012310F0EEF9044628460BF054FBD5
:10B7F000B4FA84F0400903B0F0BD00BF002280F825
:10B80000E420704770B590F8E4400CB1204670BD5C
:10B81000012380F8E43005464FF4BF500BF022FBC3
:10B8200006460028F2D0314628460FF0EFFB0446CA
:10B83000B4FA84F4304664090BF02EFB204670BD48
:10B84000704700BF0146014800F056BACC6D002099
:10B8500038B500F097F940B1002405462046013480
:10B8600000F0C8FDE0B28542F9D838BD70B592B09D
:10B870001D460C46164601A84222002114F076F916
:10B88000412D5CD9631C0222DBB28DF806408DF895
:10B890000E408DF8264040F6083540F202248DF81F
:10B8A0001E308DF827308DF83130ADF804508DF80A
:10B8B00007208DF812208DF833208DF83B20ADF84D
:10B8C0000840204A069240F2012505232424ADF8C1
:10B8D00010508DF815308DF8164004231A4C8DF851
:10B8E0001F30012540F224628DF81C508DF8303055
:10B8F0000894ADF82420154D0A9508234FF41164DF
:10B900000A228DF82C30ADF82E4040238DF83420DB
:10B910000F4C8DF83C3001A9304640F2075540F2FB
:10B9200009464222ADF80C60ADF838508DF843302E
:10B93000CDF83F4014F0F2F8422012B070BD002064
:10B9400012B070BD20010524240202050705800302
:10B9500007058002007EFF280AD010B500F0F8FC31
:10B96000044608B1204610BD0EF05AFA204610BD1C
:10B9700000207047007EFF280ED000B583B00DF187
:10B98000070100F02DFD20B19DF8070003B05DF820
:10B9900004FB4FF0FF30F9E74FF0FF30704700BF76
:10B9A000007EFF280FD000B583B001220DF1070102
:10B9B00000F0DAFC20B19DF8070003B05DF804FB4D
:10B9C0004FF0FF30F9E74FF0FF307047007EFF285F
:10B9D00001D000F00FBD7047007EFF2801D000F0BD
:10B9E00069BD0020704700BFF8B50646007EFF28FD
:10B9F0001CD017465AB10D46144600F083FC294668
:10BA0000224680B1307E00F039FD241A01D138463B
:10BA1000F8BD05440EF004FA307E00F073FC2946B0
:10BA200022460028EED13F1B3846F1E70020F8BD42
:10BA300070B50368184A5B6882B093428DF80710AE
:10BA400021D10546007EFF2823D000F05BFC0DF1DC
:10BA5000070601243146224688B1287E00F00EFDFB
:10BA6000241A02D1012002B070BD06440EF0D8F9AC
:10BA7000287E00F047FC314622460028EDD1C4F173
:10BA8000010002B070BD01220DF10701984702B01C
:10BA900070BD002002B070BDE9B9020070B592B06F
:10BAA0001D460C46164601A84222002114F05EF8FD
:10BAB000412D5CD9631C0222DBB28DF806408DF863
:10BAC0000E408DF8264040F6083540F202248DF8ED
:10BAD0001E308DF827308DF83130ADF804508DF8D8
:10BAE00007208DF812208DF833208DF83B20ADF81B
:10BAF0000840204A069240F2012505232424ADF88F
:10BB000010508DF815308DF8164004231A4C8DF81E
:10BB10001F30012540F224628DF81C508DF8303022
:10BB20000894ADF82420154D0A9508234FF41164AC
:10BB30000A228DF82C30ADF82E4040238DF83420A9
:10BB40000F4C8DF83C3001A9304640F2075540F2C9
:10BB500009464222ADF80C60ADF838508DF84330FC
:10BB6000CDF83F4013F0DAFF422012B070BD002044
:10BB700012B070BD200105242402020507058003D0
:10BB800007058002014B1878704700BFC86D002080
:10BB9000037EFF2B02D1074B1A7802B1704706498A
:10BBA00002764161012200F1100104481A7000F090
:10BBB00043B800BFC86D00202C2C0400CC6D0020C1
:10BBC000007EFF280ED000B583B000F09BFB10B1C3
:10BBD00003B05DF804FB01900EF022F9019803B068
:10BBE0005DF804FB0020704701B900B1704700B553
:10BBF00083B0694600F09CFB009BB3F5966F02D0C2
:10BC000003B05DF804FB00F029FBF9E730B4084B02
:10BC1000084AFF2002F108054FF47A7400213032FF
:10BC200018761D609C601A6130BC5960596170477C
:10BC3000AC6D00203C2C0400F8B50546B0F81801A6
:10BC40006C69B5F81A310A680E4604441B1A176865
:10BC500095F81C119BB222463046B84750B32218C3
:10BC600094423CD2766806E0052B25D023780BB3AE
:10BC70001C44A24233D96378042BF5D1E378002B1E
:10BC8000F4D195F81C11013185F81C11002EEDD06E
:10BC900095F840110729E9D801F1480745F82760D0
:10BCA000217295F84011013185F840111E46237824
:10BCB000002BDDD10020F8BD94F90230002B08DB09
:10BCC00095F81E31591C85F81E11A1780B43A370FD
:10BCD000CCE795F81D31591C85F81D11F5E7B5F82D
:10BCE00018216B69104480B2A5F81801588095F8A6
:10BCF0001C211A710120F8BD2DE9F043284DDFF811
:10BD0000B090AC4604468846BCE80F0089B003AF4B
:10BD10000FC703AE0FCE05F1140E25460FC59EE8E2
:10BD20000700DCF800303B806B4636682E8003C38A
:10BD30006B4603CB1B4EA06104F118034FF4807CCB
:10BD40000125E16184F82020636140F2EF220023A5
:10BD50001548C4F8189140F209470421A4F81CC101
:10BD6000C4F8280184F84011A280C4F82C31C4F82A
:10BD70003031C4F83431C4F83831C4F83C314FF4B0
:10BD8000E131C4E94876094884F81E51A571FFF7EE
:10BD9000FFFE404600F050FA284609B0BDE8F083A7
:10BDA0008C2C0400702C0400902A0400AC6D002040
:10BDB000090000012DE9F04F04468BB0002900F086
:10BDC0009180032900F09C8090F840318B4240F232
:10BDD000CB80483100F5A27550F821603278002AF6
:10BDE00000F0E78000231946374603E00131725C1A
:10BDF0007718CAB102F14000C0B20128F6D9F42A7E
:10BE0000F4D8100618D40120A2F55847B7F5006FF2
:10BE1000ECD30144202B00F0C98025F81320725C7C
:10BE200001337718002AE5D1DBB201335B0043F41C
:10BE3000407304F5A17C5DE002F0E000C02800F052
:10BE4000A18002F0F000E02800F0918002F0F800FC
:10BE5000F028CBD102F007024FF0040E787800F002
:10BE6000C00CBCF1800FC1D197F802C00CF0C00823
:10BE700000F03F00B8F1800F40EA8212B6D10CF01A
:10BE80003F0CBEF1030F4CEA821275D0F87800F037
:10BE9000C007802FAAD100F03F0040EA8212A2F52D
:10BEA0008030B0F5801F38BF4FF0040E9ED2A2F54F
:10BEB0005840B0F5006F99D3B2F5803F7144A9D3D3
:10BEC0001E2BB1DCA2F580325800970A2844C2F339
:10BED0000902A7F52057A2F5105225F813704280E9
:10BEE000023384E7D0F82031A0F8443100F5A17C7A
:10BEF0004FF44173A4F8423160460BB0BDE8F08FB7
:10BF000002A800F0ADF904F5A17C019020B300F186
:10BF1000FF3B5FFA8BF3284F04F1040B0DF1080A85
:10BF20000BEB830BA64606AE97E80F001AF8018BC1
:10BF300086E80F0008F00F090AADA94405EB1818B0
:10BF400019F8109C18F8103CAEF84691AEF8443140
:10BF50000EF1040EDE45E7D1019B5B00DBB201333D
:10BF60005B0043F44073C5E74FF0000CC4E702F0F8
:10BF70000F024FF0030E71E7A2F50060B0F5784FA5
:10BF800095D333E7787800F0C007802F02F01F02C6
:10BF90007FF42CAF00F03F0040EA8212A2F1800053
:10BFA000B0F5F06FBFF422AF02202DE740F242332C
:10BFB0003FE740F202333CE7782C0400004870472A
:10BFC000CC6D0020014B5869704700BFCC6D00203C
:10BFD0000A4601460148FFF7EDBE00BFCC6D0020C8
:10BFE000024B186800B10069704700BF506F002015
:10BFF00030B40848BDF80850046844B1646934B1ED
:10C000000846A44611461A462B4630BC604700201D
:10C0100030BC7047506F002030B40848BDF808505D
:10C02000046844B1A46934B10846A44611461A46CE
:10C030002B4630BC604730BC704700BF506F0020BB
:10C04000024B186808B190F850007047546F0020F8
:10C050002DE9F047244C2568002D42D01F4600EB07
:10C06000C00305EB83030446D3F818A08946904625
:10C07000C600BAF1000F30D0504614F05AFC082820
:10C08000024628BF0822344405EB8405D5E907643D
:10C09000DFF85CC0154B002E08BF66465146484687
:10C0A000002C08BF1C4613F039FD304614F041FC4B
:10C0B00010280246314628BF1022404613F02EFDBC
:10C0C000204614F036FC042802462146384628BF94
:10C0D0000422BDE8F04713F021BDDFF818A00822C4
:10C0E000D1E7BDE8F08700BF546F0020C82C0400E2
:10C0F000B82C0400AC2C0400F8B50B4F3B688BB196
:10C1000000EBC00503EB850504466A69C6001AB159
:10C1100090473B6885F82A00344403EB840393F886
:10C120002A00F8BD1846F8BD546F0020074B1B6865
:10C130005BB100EBC00003EB800010B4038D446AD8
:10C140000C605DF8044B138070477047546F0020FB
:10C150000A781E2A01D10020704710B520221C4603
:10C160000521002300F078FF204610BD30B4094CB3
:10C17000029A256855B1044604EBC40405EB840417
:10C1800008461946A3680BB130BC18474FF0FF3082
:10C1900030BC7047546F002030B4094C029A2568B7
:10C1A00055B1044604EBC40405EB84040846194663
:10C1B000E3680BB130BC18474FF0FF3030BC70471C
:10C1C000546F0020054B1B6833B100EBC00003EB3C
:10C1D0008000036903B11847704700BF546F002007
:10C1E00000B5104B402283B083F8272303F030FFC3
:10C1F0004FF080430024D3F838548DF8004068464F
:10C200000DF0B8F9084B019301A80DF003FA0DF0F9
:10C210000DFAEB0702D401F009FFFCE7204603F01A
:10C2200053FDF8E700E100E02DC2020003F04CBD31
:10C23000002003F029BA00BF00B5002383B0032219
:10C24000CDE9002303490448C8220BF00BFE03B0DC
:10C250005DF804FBCC2C0400E1C102000DF0D0BF5E
:10C260004FF08052536E1BBA0360136E1BBA4360CB
:10C270000820704700487047D42C040070B51F4D4B
:10C280002B68B3B199B91478C4F34114012C0BD0C5
:10C29000022C07D15478012C0DD0022C07D19388A1
:10C2A000072B21D0084670BD517822290CD00120DF
:10C2B00070BD184670BDDC69F4B123781146224682
:10C2C000BDE8704002F070BE5188003918BF0121EE
:10C2D0001976114602F04EFE2A68136A002BE6D04A
:10C2E000107E9847204670BD054C11462389224692
:10C2F000BDE8704002F058BE204670BD586F002067
:10C300000460002010B5044601F0ECFD08B90020DF
:10C3100010BD01F0EFFD0028F9D104484FF45A7325
:10C3200003FB0400007900F0010010BD5C6F0020E9
:10C33000064B4FF45A7202FB003050F8063F0B6078
:10C34000838882798A718B80704700BF5C6F002080
:10C3500008B5044B4FF45A7202FB0030103001F064
:10C3600025FC08BD5C6F00202DE9F0414FF45A75A3
:10C3700005FB00F5194F05F110043C4492B220462C
:10C3800001F040FC0646204601F02AFC3F2802D876
:10C390003046BDE8F08107EB0508002098F803104F
:10C3A00002F01EFD0028F3D0204601F019FC3F28C2
:10C3B0000BD905F53A7298F803103A44402300204F
:10C3C00002F072FD3046BDE8F08198F803100020BD
:10C3D00002F03EFD3046BDE8F08100BF5C6F0020FA
:10C3E000034B4FF45A7202FB0030103001F07CBC5A
:10C3F0005C6F00202DE9F041044601F073FD10B997
:10C400000020BDE8F08101F075FD06460028F7D157
:10C410004FF45A71DFF8608001FB04F404F12C053D
:10C420004544284601F0C2FB0028E9D008EB040788
:10C430003046B97802F0D4FC0028E1D004F54A7403
:10C44000444428462146402201F0DCFB054660B109
:10C45000B978224630462B4602F026FD40B9054BFE
:10C460001B68DB07CCD500BECBE7B97802F0F0FC47
:10C470002846C6E7F0ED00E05C6F002038B50C4BB5
:10C480004FF45A7404FB00342C3492B20546204613
:10C4900001F06AFC034620461C4601F087FB3F285A
:10C4A00001D8204638BD2846FFF7A4FF204638BDF6
:10C4B0005C6F002008B5044B4FF45A7202FB003049
:10C4C0002C3001F08DFB08BD5C6F0020F0B51C4CDA
:10C4D00083B000214FF45A72204601250E4613F016
:10C4E00045FBFF234FF4424204F148016371E280AF
:10C4F0002B460827009604F110004FF48072277332
:10C500002581668101F016FB2B464FF4807204F5FD
:10C51000A471009504F12C0001F00CFB04F51271DC
:10C5200028460AF045FF04F5267103462846C4E96B
:10C5300009630AF03DFFC4E9100603B0F0BD00BF77
:10C540005C6F002010B5094B002203F12C0403F1AD
:10C5500010001A601A7101F07DFC204601F07AFC8F
:10C5600020460121BDE8104001F09CBC5C6F00201A
:10C570002DE9F0414B79022B82B002D18B79022B4D
:10C5800004D00025284602B0BDE8F081314FBB78C9
:10C590002BB1314B1B68DB07F3D500BEF1E78B787D
:10C5A0003B700C780C440646617824294FF009054D
:10C5B0000BD1082A02D80FE0AA420DD323781C44DD
:10C5C0002B44617824299DB2F6D005291BD004297B
:10C5D00002D163790A2B28D0204801F001FB3F28C3
:10C5E000D0D9F978002002F0FBFB0028CAD01B4804
:10C5F00001F0F6FA3F28F97813D9194A40230020B0
:10C6000002F052FCBEE72146304602F0C9FB00288A
:10C61000BFD0A3787B7023781C442B4461789DB2F3
:10C62000D5E7002002F014FCACE70E4A94F8008035
:10C630000192022301320092304604EB08011A46AF
:10C6400002F03AFB0028A4D005F10E0318FA83F398
:10C650009DB2C1E75C6F0020F0ED00E06C6F002040
:10C66000447200205E6F002038B5137803F0600339
:10C67000202B0CD1264C938825789D4207D15378E6
:10C68000203B032B03D8DFE803F009151E0400202C
:10C6900038BD71B3022931D0012038BD61B1022902
:10C6A000FAD11C4B002BF7D01B490020AFF30080C0
:10C6B000012038BD0029EFD111460723164A02F0A8
:10C6C00073FC012038BDA1B10229E5D1558825713F
:10C6D00005F00104114884F0010101F0E3FB104B67
:10C6E000002BD9D0C5F3400221460020FFF77CFA89
:10C6F000D2E7114602F03EFC012038BD094B002B69
:10C70000CAD051880020AFF30080012038BD00BF9F
:10C710005C6F002000000000626F0020886F002026
:10C72000E9BB0200000000002DE9F047574DEA7810
:10C730008A420C4607461E465CD19AB205F53A710C
:10C7400005F1100001F010FB514BD3B16B79FF2BB9
:10C7500017D0B6B105F2E72808EB060AA8F2D729E8
:10C7600002E0D0450DD06B7918F8012F9A42F8D12C
:10C77000484601F02BFA0028F3D16979AFF3008025
:10C78000EFE7444B23B1444801F020FA002870D071
:10C79000414801F025FA3F2805D9E978002002F048
:10C7A0001FFB002858D1AB789C4203D001242046BF
:10C7B000BDE8F087394B13B10020AFF3008001F0E2
:10C7C00091FB20BB364801F0F1F90028EED1002E94
:10C7D000ECD016F03F06E9D1A978384602F000FB0C
:10C7E00004460028E2D0A97838463346324602F0A3
:10C7F0005BFBDCE7AB788B42DCD02A4B1C6814F087
:10C800000104D4D000BE00242046BDE8F08701F02A
:10C8100071FB04460028D5D1214801F0C7F9002852
:10C82000D0D0A978204602F0DBFA0028CAD01E49F1
:10C830004022A1F53F7001F0E5F9034608B31A4A1A
:10C84000A978204602F030FB0028AFD1154B1B68B9
:10C85000DB07B7D500BEB5E70F4801F0C1F93F28A7
:10C860000AD94023114AE978002002F01DFBAB7879
:10C870009AE7AFF300808BE7E978002002F0E8FA4E
:10C8800091E7A97802F0E4FA9CE700BF5C6F002012
:10C8900000000000000000006C6F0020000000009D
:10C8A000886F0020F0ED00E08472002044720020C8
:10C8B00002488C22002113F059B900BFC472002035
:10C8C00002488C22002113F051B900BFC47200202D
:10C8D0002DE9F0414B79032B82B011D10F79C7EBD1
:10C8E000C7051235ADB295420C4604D8DFF89C80DE
:10C8F00098F8011049B1234B1B68DA0700D500BE38
:10C900000025284602B0BDE8F08194F800C004EB91
:10C910000C0292F801E0BEF1210FECD1C8F888209A
:10C9200014F80C1008F1010E08F1020C1144CDE9C5
:10C9300000CE3A46064602F0BFF90028DBD0A379C4
:10C9400098F80210012B04BFE37988F80330012224
:10C95000D8F8883088F80420A278B3F8073088F82F
:10C960000020A8F806300029CBD0074A30464023E3
:10C9700002F09AFA0028C4D1024B1B68DB07C0D52D
:10C9800000BEBEE7F0ED00E00C730020C472002092
:10C99000F0B51446127802F01F05012D83B00FD1B7
:10C9A0000B467149A78891F800C0FFB2BC4507D17A
:10C9B00012F06002064606D183BB6278062A30D0A8
:10C9C000002003B0F0BD202AFAD16278013A0A2A89
:10C9D000F6D801A050F822F0ADCA020099CA0200B0
:10C9E00085CA0200C1C90200C1C90200C1C9020052
:10C9F000C1C90200C1C902006DCA020047CA0200D3
:10CA000005CA020063B3022B08D16388574ADBB220
:10CA10000B711AB119460020AFF30080012003B05A
:10CA2000F0BD6288120A212A65D0222AC8D1184690
:10CA3000FFF7D6FA4C490246CB883046214602F031
:10CA4000B3FA2846BDE7002BE8D162884848120AAD
:10CA50004A7128B111461846AFF300800028AFD0C4
:10CA60002146304602F086FA0120AAE7002B4ED17B
:10CA7000E388402BA4D83F4A2146304602F094FA7E
:10CA800001209EE7002BC9D13B4A214630460123B5
:10CA900002F08AFA012094E7002BBFD1374A2146E1
:10CAA0003046012302F080FA01208AE7002BB5D13D
:10CAB000E5886088402D4FEA10222F4628BF402786
:10CAC00010F0FF003ED0012D46D9013F08722C49DD
:10CAD000BFB201250B46009701460020FFF788FAF8
